{
  "contractName": "ChainList",
  "abi": [
    {
      "anonymous": false,
      "inputs": [
        {
          "indexed": true,
          "internalType": "uint256",
          "name": "_id",
          "type": "uint256"
        },
        {
          "indexed": true,
          "internalType": "address",
          "name": "_seller",
          "type": "address"
        },
        {
          "indexed": true,
          "internalType": "address",
          "name": "_buyer",
          "type": "address"
        },
        {
          "indexed": false,
          "internalType": "string",
          "name": "_name",
          "type": "string"
        },
        {
          "indexed": false,
          "internalType": "uint256",
          "name": "_price",
          "type": "uint256"
        }
      ],
      "name": "LogBuyArticle",
      "type": "event"
    },
    {
      "anonymous": false,
      "inputs": [
        {
          "indexed": true,
          "internalType": "uint256",
          "name": "_id",
          "type": "uint256"
        },
        {
          "indexed": true,
          "internalType": "address",
          "name": "_seller",
          "type": "address"
        },
        {
          "indexed": false,
          "internalType": "string",
          "name": "_name",
          "type": "string"
        },
        {
          "indexed": false,
          "internalType": "uint256",
          "name": "_price",
          "type": "uint256"
        }
      ],
      "name": "LogSellArticle",
      "type": "event"
    },
    {
      "inputs": [
        {
          "internalType": "uint256",
          "name": "",
          "type": "uint256"
        }
      ],
      "name": "articles",
      "outputs": [
        {
          "internalType": "uint256",
          "name": "id",
          "type": "uint256"
        },
        {
          "internalType": "address payable",
          "name": "seller",
          "type": "address"
        },
        {
          "internalType": "address payable",
          "name": "buyer",
          "type": "address"
        },
        {
          "internalType": "string",
          "name": "name",
          "type": "string"
        },
        {
          "internalType": "string",
          "name": "description",
          "type": "string"
        },
        {
          "internalType": "uint256",
          "name": "price",
          "type": "uint256"
        }
      ],
      "stateMutability": "view",
      "type": "function",
      "constant": true
    },
    {
      "inputs": [],
      "name": "owner",
      "outputs": [
        {
          "internalType": "address payable",
          "name": "",
          "type": "address"
        }
      ],
      "stateMutability": "view",
      "type": "function",
      "constant": true
    },
    {
      "inputs": [],
      "name": "killContract",
      "outputs": [],
      "stateMutability": "nonpayable",
      "type": "function"
    },
    {
      "inputs": [
        {
          "internalType": "string",
          "name": "_name",
          "type": "string"
        },
        {
          "internalType": "string",
          "name": "_description",
          "type": "string"
        },
        {
          "internalType": "uint256",
          "name": "_price",
          "type": "uint256"
        }
      ],
      "name": "sellArticle",
      "outputs": [],
      "stateMutability": "nonpayable",
      "type": "function"
    },
    {
      "inputs": [],
      "name": "getNumberOfArticle",
      "outputs": [
        {
          "internalType": "uint256",
          "name": "",
          "type": "uint256"
        }
      ],
      "stateMutability": "view",
      "type": "function",
      "constant": true
    },
    {
      "inputs": [],
      "name": "getArticlesForSale",
      "outputs": [
        {
          "internalType": "uint256[]",
          "name": "",
          "type": "uint256[]"
        }
      ],
      "stateMutability": "view",
      "type": "function",
      "constant": true
    },
    {
      "inputs": [
        {
          "internalType": "uint256",
          "name": "_id",
          "type": "uint256"
        }
      ],
      "name": "buyArticle",
      "outputs": [],
      "stateMutability": "payable",
      "type": "function",
      "payable": true
    }
  ],
  "bytecode": "0x6080604052600060025534801561001557600080fd5b50336000806101000a81548173ffffffffffffffffffffffffffffffffffffffff021916908373ffffffffffffffffffffffffffffffffffffffff160217905550611231806100656000396000f3fe6080604052600436106100705760003560e01c80637f6be3da1161004e5780637f6be3da146100d35780638da5cb5b146100fe578063d260951514610129578063edcfafe61461015257610070565b80631c02708d146100755780631cc4baa81461008c578063518f0d24146100a8575b600080fd5b34801561008157600080fd5b5061008a610194565b005b6100a660048036038101906100a19190610b67565b61025b565b005b3480156100b457600080fd5b506100bd6104cf565b6040516100ca9190610ba3565b60405180910390f35b3480156100df57600080fd5b506100e86104d9565b6040516100f59190610c7c565b60405180910390f35b34801561010a57600080fd5b506101136106ae565b6040516101209190610cdf565b60405180910390f35b34801561013557600080fd5b50610150600480360381019061014b9190610e40565b6106d2565b005b34801561015e57600080fd5b5061017960048036038101906101749190610b67565b6108ee565b60405161018b96959493929190610f53565b60405180910390f35b60008054906101000a900473ffffffffffffffffffffffffffffffffffffffff1673ffffffffffffffffffffffffffffffffffffffff163373ffffffffffffffffffffffffffffffffffffffff1614610222576040517f08c379a00000000000000000000000000000000000000000000000000000000081526004016102199061100e565b60405180910390fd5b60008054906101000a900473ffffffffffffffffffffffffffffffffffffffff1673ffffffffffffffffffffffffffffffffffffffff16ff5b60006002541161026a57600080fd5b60008111801561027c57506002548111155b61028557600080fd5b6000600160008381526020019081526020016000209050600073ffffffffffffffffffffffffffffffffffffffff168160020160009054906101000a900473ffffffffffffffffffffffffffffffffffffffff1673ffffffffffffffffffffffffffffffffffffffff16146102f957600080fd5b8060010160009054906101000a900473ffffffffffffffffffffffffffffffffffffffff1673ffffffffffffffffffffffffffffffffffffffff163373ffffffffffffffffffffffffffffffffffffffff16141561035657600080fd5b8060050154341461036657600080fd5b338160020160006101000a81548173ffffffffffffffffffffffffffffffffffffffff021916908373ffffffffffffffffffffffffffffffffffffffff1602179055508060010160009054906101000a900473ffffffffffffffffffffffffffffffffffffffff1673ffffffffffffffffffffffffffffffffffffffff166108fc349081150290604051600060405180830381858888f19350505050158015610413573d6000803e3d6000fd5b508060020160009054906101000a900473ffffffffffffffffffffffffffffffffffffffff1673ffffffffffffffffffffffffffffffffffffffff168160010160009054906101000a900473ffffffffffffffffffffffffffffffffffffffff1673ffffffffffffffffffffffffffffffffffffffff16837f5d28bc06e6f0c45405abfe77bd77236c767f9bd9d044ae2d954a415a2b4823e08460030185600501546040516104c3929190611124565b60405180910390a45050565b6000600254905090565b6060600060025467ffffffffffffffff8111156104f9576104f8610d15565b5b6040519080825280602002602001820160405280156105275781602001602082028036833780820191505090505b509050600080600190505b60025481116105fe57600073ffffffffffffffffffffffffffffffffffffffff166001600083815260200190815260200160002060020160009054906101000a900473ffffffffffffffffffffffffffffffffffffffff1673ffffffffffffffffffffffffffffffffffffffff1614156105eb5760016000828152602001908152602001600020600001548383815181106105d0576105cf611154565b5b60200260200101818152505081806105e7906111b2565b9250505b80806105f6906111b2565b915050610532565b5060008167ffffffffffffffff81111561061b5761061a610d15565b5b6040519080825280602002602001820160405280156106495781602001602082028036833780820191505090505b50905060005b828110156106a45783818151811061066a57610669611154565b5b602002602001015182828151811061068557610684611154565b5b602002602001018181525050808061069c906111b2565b91505061064f565b5080935050505090565b60008054906101000a900473ffffffffffffffffffffffffffffffffffffffff1681565b600260008154809291906106e5906111b2565b9190505550600254600160006002548152602001908152602001600020600001819055503360016000600254815260200190815260200160002060010160006101000a81548173ffffffffffffffffffffffffffffffffffffffff021916908373ffffffffffffffffffffffffffffffffffffffff160217905550600060016000600254815260200190815260200160002060020160006101000a81548173ffffffffffffffffffffffffffffffffffffffff021916908373ffffffffffffffffffffffffffffffffffffffff1602179055508260016000600254815260200190815260200160002060030190805190602001906107e4929190610a7a565b50816001600060025481526020019081526020016000206004019080519060200190610811929190610a7a565b50806001600060025481526020019081526020016000206005018190555060016000600254815260200190815260200160002060010160009054906101000a900473ffffffffffffffffffffffffffffffffffffffff1673ffffffffffffffffffffffffffffffffffffffff166002547fe2ebb0c522a8b90a93f45a5dfd3c0e0516b81519fdf199efe51c474642fe8cec600160006002548152602001908152602001600020600301600160006002548152602001908152602001600020600501546040516108e1929190611124565b60405180910390a3505050565b60016020528060005260406000206000915090508060000154908060010160009054906101000a900473ffffffffffffffffffffffffffffffffffffffff16908060020160009054906101000a900473ffffffffffffffffffffffffffffffffffffffff16908060030180546109639061105d565b80601f016020809104026020016040519081016040528092919081815260200182805461098f9061105d565b80156109dc5780601f106109b1576101008083540402835291602001916109dc565b820191906000526020600020905b8154815290600101906020018083116109bf57829003601f168201915b5050505050908060040180546109f19061105d565b80601f0160208091040260200160405190810160405280929190818152602001828054610a1d9061105d565b8015610a6a5780601f10610a3f57610100808354040283529160200191610a6a565b820191906000526020600020905b815481529060010190602001808311610a4d57829003601f168201915b5050505050908060050154905086565b828054610a869061105d565b90600052602060002090601f016020900481019282610aa85760008555610aef565b82601f10610ac157805160ff1916838001178555610aef565b82800160010185558215610aef579182015b82811115610aee578251825591602001919060010190610ad3565b5b509050610afc9190610b00565b5090565b5b80821115610b19576000816000905550600101610b01565b5090565b6000604051905090565b600080fd5b600080fd5b6000819050919050565b610b4481610b31565b8114610b4f57600080fd5b50565b600081359050610b6181610b3b565b92915050565b600060208284031215610b7d57610b7c610b27565b5b6000610b8b84828501610b52565b91505092915050565b610b9d81610b31565b82525050565b6000602082019050610bb86000830184610b94565b92915050565b600081519050919050565b600082825260208201905092915050565b6000819050602082019050919050565b610bf381610b31565b82525050565b6000610c058383610bea565b60208301905092915050565b6000602082019050919050565b6000610c2982610bbe565b610c338185610bc9565b9350610c3e83610bda565b8060005b83811015610c6f578151610c568882610bf9565b9750610c6183610c11565b925050600181019050610c42565b5085935050505092915050565b60006020820190508181036000830152610c968184610c1e565b905092915050565b600073ffffffffffffffffffffffffffffffffffffffff82169050919050565b6000610cc982610c9e565b9050919050565b610cd981610cbe565b82525050565b6000602082019050610cf46000830184610cd0565b92915050565b600080fd5b600080fd5b6000601f19601f8301169050919050565b7f4e487b7100000000000000000000000000000000000000000000000000000000600052604160045260246000fd5b610d4d82610d04565b810181811067ffffffffffffffff82111715610d6c57610d6b610d15565b5b80604052505050565b6000610d7f610b1d565b9050610d8b8282610d44565b919050565b600067ffffffffffffffff821115610dab57610daa610d15565b5b610db482610d04565b9050602081019050919050565b82818337600083830152505050565b6000610de3610dde84610d90565b610d75565b905082815260208101848484011115610dff57610dfe610cff565b5b610e0a848285610dc1565b509392505050565b600082601f830112610e2757610e26610cfa565b5b8135610e37848260208601610dd0565b91505092915050565b600080600060608486031215610e5957610e58610b27565b5b600084013567ffffffffffffffff811115610e7757610e76610b2c565b5b610e8386828701610e12565b935050602084013567ffffffffffffffff811115610ea457610ea3610b2c565b5b610eb086828701610e12565b9250506040610ec186828701610b52565b9150509250925092565b600081519050919050565b600082825260208201905092915050565b60005b83811015610f05578082015181840152602081019050610eea565b83811115610f14576000848401525b50505050565b6000610f2582610ecb565b610f2f8185610ed6565b9350610f3f818560208601610ee7565b610f4881610d04565b840191505092915050565b600060c082019050610f686000830189610b94565b610f756020830188610cd0565b610f826040830187610cd0565b8181036060830152610f948186610f1a565b90508181036080830152610fa88185610f1a565b9050610fb760a0830184610b94565b979650505050505050565b7f4f6e6c79206f6e77657200000000000000000000000000000000000000000000600082015250565b6000610ff8600a83610ed6565b915061100382610fc2565b602082019050919050565b6000602082019050818103600083015261102781610feb565b9050919050565b7f4e487b7100000000000000000000000000000000000000000000000000000000600052602260045260246000fd5b6000600282049050600182168061107557607f821691505b602082108114156110895761108861102e565b5b50919050565b60008190508160005260206000209050919050565b600081546110b18161105d565b6110bb8186610ed6565b945060018216600081146110d657600181146110e85761111b565b60ff198316865260208601935061111b565b6110f18561108f565b60005b83811015611113578154818901526001820191506020810190506110f4565b808801955050505b50505092915050565b6000604082019050818103600083015261113e81856110a4565b905061114d6020830184610b94565b9392505050565b7f4e487b7100000000000000000000000000000000000000000000000000000000600052603260045260246000fd5b7f4e487b7100000000000000000000000000000000000000000000000000000000600052601160045260246000fd5b60006111bd82610b31565b91507fffffffffffffffffffffffffffffffffffffffffffffffffffffffffffffffff8214156111f0576111ef611183565b5b60018201905091905056fea26469706673582212201271253ce5aa058b4c3a85475514c379221e4e7ab25848da3ed28e75147f62ff64736f6c634300080a0033",
  "immutableReferences": {},
  "source": "pragma solidity >0.4.0 < 0.9.0;\nimport \"./Ownable.sol\";\ncontract ChainList is Ownable{\n  // state variables\n  struct Article{\n    uint id;\n    address payable seller;\n    address payable buyer;\n    string name;\n    string description;\n    uint256 price;\n  }\n  mapping(uint => Article) public articles;\n  uint articleCounter = 0;\n\n  function killContract() public onlyOwner{\n    selfdestruct(owner);\n  }\n\n  // events\n  event LogSellArticle(\n    uint indexed _id,\n    address indexed _seller,\n    string _name,\n    uint256 _price\n  );\n  event LogBuyArticle(\n    uint indexed _id,\n    address indexed _seller,\n    address indexed _buyer,\n    string _name,\n    uint256 _price\n  );\n\n  // sell an article\n  function sellArticle(string memory _name, string memory _description, uint256 _price) public {\n    articleCounter++;\n    articles[articleCounter].id = articleCounter;\n    articles[articleCounter].seller = payable(msg.sender);\n    articles[articleCounter].buyer = payable(0x0);\n    articles[articleCounter].name = _name;\n    articles[articleCounter].description = _description;\n    articles[articleCounter].price = _price;\n    emit LogSellArticle(articleCounter, articles[articleCounter].seller, articles[articleCounter].name, articles[articleCounter].price);\n  }\n\n  // get an article\n  function getNumberOfArticle() public view returns(uint) {\n    return articleCounter;\n  }\n\n  function getArticlesForSale() public view returns (uint[] memory) {\n    // prepare output array\n    uint[] memory articleIds = new uint[](articleCounter);\n\n    uint numberOfArticlesForSale = 0;\n    // iterate over articles\n    for(uint i = 1; i <= articleCounter;  i++) {\n      // keep the ID if the article is still for sale\n      if(articles[i].buyer == payable(0x0)) {\n        articleIds[numberOfArticlesForSale] = articles[i].id;\n        numberOfArticlesForSale++;\n      }\n    }\n\n    // copy the articleIds array into a smaller forSale array\n    uint[] memory forSale = new uint[](numberOfArticlesForSale);\n    for(uint j = 0; j < numberOfArticlesForSale; j++) {\n      forSale[j] = articleIds[j];\n    }\n    return forSale;\n  }\n  // buy an article\n  function buyArticle(uint _id) payable public {\n    // we check whether there is an article for sale\n    require(articleCounter > 0);\n    require(_id > 0 && _id <= articleCounter);\n    Article storage article = articles[_id]; \n    // we check that the article has not been sold yet\n    require(article.buyer == payable(0x0));\n\n    // we don't allow the seller to buy his own article\n    require(msg.sender != article.seller);\n\n    // we check that the value sent corresponds to the price of the article\n    require(msg.value == article.price);\n\n    // keep buyer's information\n    article.buyer = payable(msg.sender);\n\n    // the buyer can pay the seller\n    article.seller.transfer(msg.value);\n\n    // trigger the event\n    emit LogBuyArticle(_id, article.seller, article.buyer, article.name, article.price);\n  }\n}\n",
  "sourcePath": "C:\\Users\\Admin\\Desktop\\Smart_Contract_2\\contracts\\ChainList.sol",
  "compiler": {
    "name": "solc",
    "version": "0.8.10+commit.fc410830.Emscripten.clang"
  },
  "schemaVersion": "3.4.3",
  "updatedAt": "2021-12-16T06:49:42.929Z",
  "networkType": "ethereum",
  "devdoc": {
    "kind": "dev",
    "methods": {},
    "version": 1
  },
  "userdoc": {
    "kind": "user",
    "methods": {},
    "version": 1
  }
}